:020000040800F2
:1000000028040020A1010008A105000899050008A6
:100010009D05000871040008CD09000800000000DB
:100020000000000000000000000000002D07000894
:100030007504000800000000D7010008D90100087D
:10004000DB010008DB010008DB010008DB01000820
:10005000DB010008DB010008DB010008DB01000810
:10006000DB010008DB010008DB010008DB01000800
:10007000DB010008DB010008DB010008DB010008F0
:10008000DB010008DB010008DB010008DB010008E0
:10009000DB010008DB010008DB010008DB010008D0
:1000A000DB010008DB010008DB010008DB010008C0
:1000B000DB010008DB010008DB010008DB010008B0
:1000C000DB010008DB010008DB010008DB010008A0
:1000D000DB010008DB010008DB010008DB01000890
:1000E000DB010008DB010008DB010008DB01000880
:1000F000DB010008DB010008DB010008DB01000870
:10010000DB010008DB010008DB010008DB0100085F
:10011000DB010008DB010008DB010008DB0100084F
:10012000DB010008DB010008DB010008DB0100083F
:10013000DB010008DB010008DB010008DB0100082F
:10014000DB010008DB010008DB010008DB0100081F
:10015000DB010008DB010008DB010008DB0100080F
:10016000DB010008DB010008DB010008DB010008FF
:10017000DB010008DB010008DB010008DB010008EF
:10018000DB010008DB010008DFF810D000F02EF8DA
:1001900000480047450A0008AFF30080280400200B
:1001A000DFF83800016841F470010160BFF34F8F40
:1001B000DFF82C00016821F040410160BFF36F8F30
:1001C0000848804708480047FEE7FEE7FEE7FEE7ED
:1001D000FEE7FEE7FEE7FEE7FEE7FEE788ED00E06C
:1001E00034EF00E04508000889010008064C074D7F
:1001F00006E0E06840F0010394E8070098471034F7
:10020000AC42F6D3FFF7C4FFA40A0008C40A0008F2
:1002100010B56FF0040000F001FB10BD70B504468E
:100220004FF4FA7094FBF0F0C6B24FF4FA7094FBFE
:10023000F0F100FB114085B205E04FF4FA7000F0D8
:100240001AF9701EC6B2002EF7D115B1284600F07B
:1002500012F970BD0146C1EBC10202EB42024FF040
:10026000E0235A6100229A611A46126942F00102A3
:100270001A6100BF4FF0E022106900F001021AB1CC
:1002800000F48032002AF5D04FF0E022126922F00B
:1002900001024FF0E0231A6100229A6170470000CA
:1002A0001CB50121042000F0ADF940200090012090
:1002B0008DF8040000208DF8060003208DF805005D
:1002C00001208DF807006946034800F0F8F8402146
:1002D000014800F05FF91CBD000802401CB5012177
:1002E000084600F08FF91020009000208DF80400DF
:1002F00003208DF8050001208DF8070069461D4890
:1003000000F0DDF82020009001208DF8040000208E
:100310008DF8060003208DF8050001208DF80700F8
:100320006946144800F0CBF84020009001208DF879
:10033000040000208DF8060003208DF80500012040
:100340008DF8070069460B4800F0B9F8802000904E
:1003500001208DF8040000208DF8060003208DF8A0
:10036000050001208DF807006946024800F0A7F853
:100370001CBD00000000024070B504460020164974
:10038000086000250AE01549485D00F00BF91449A2
:1003900048551020FFF75EFF681CC5B2092DF2DB3F
:1003A00001200D4908600E48407820700C48C07844
:1003B000C04360700A480079C043A0700848407983
:1003C000E0700748807920710548C0796071044861
:1003D000007AA07170BD000098024042980A00089F
:1003E0001C00002010B586B004460121084600F02C
:1003F00009F90121102000F015F9072209211A48F6
:1004000000F0A5F807220A21174800F0A0F84FF4E1
:10041000C060049002208DF814008DF815000020B3
:100420008DF8160001208DF8170004A90E4800F081
:1004300046F800940020ADF80400ADF80600ADF8D1
:100440000800ADF80C000C20ADF80A00694607481A
:1004500000F04EFA0121054800F031FA402103482E
:1004600000F024FA06B010BD000002400010014068
:1004700000BFFEE77047014645F208224A434FF0AD
:10048000E0235A6100229A611A46126942F0010281
:100490001A6100BF4FF0E022106900F001021AB1AA
:1004A00000F48032002AF5D04FF0E022126922F0E9
:1004B00001024FF0E0231A6100229A617047F0B503
:1004C0000A4600210023002400BF3DE0012505FA73
:1004D00001F3156805EA03049C4234D105684F0016
:1004E0000326BE40B543056015794E00B540066849
:1004F000354305601579012D02D01579022D16D1ED
:1005000085684F000326BE40B543856055794E008F
:10051000B540866835438560456801268E40B54301
:100520004560456896798E40B6B235434560C568EA
:100530004F000326BE40B543C560D5794E00B54097
:10054000C6683543C560491C1029BFD3F0BDF0B55E
:10055000002300244D07ED0E02FA05F3CE1000F142
:10056000200555F826504E07F70E0F26BE40B5431E
:10057000CF1000F1200646F82750CE1000F12005DC
:1005800055F8265045EA0304CE1000F1200545F841
:100590002640F0BD0183704700BFFEE700BFFEE7C5
:1005A0007047000070B5054601241EE00020134985
:1005B000086004EA050020B10120104908390860EC
:1005C00003E000200D49083908601020FFF742FEC3
:1005D00001200A4908600A48D0F8100200B12643F9
:1005E0001020FFF737FE6006040E002CDEDC012031
:1005F000024908390860304670BD00009C02404244
:100600000000404229B1064A12680243044B1A60B6
:1006100004E0034A12688243014B1A6070470000ED
:100620003038024029B1064A12680243044B1A606E
:1006300004E0034A12688243014B1A6070470000CD
:1006400044380240F0B50021002200240225002693
:100650000223324F3F6807F00C0121B1042905D075
:10066000082937D105E02E4F076036E02D4F07608F
:1006700033E02A4F3F1F3F68C7F38056274F3F1F85
:100680003F6807F03F036EB1264FB7FBF3F7DFF883
:100690008CC0ACF1040CDCF800C0CCF3881C07FB68
:1006A0000CF40CE01E4FB7FBF3F7DFF870C0ACF1B1
:1006B000040CDCF800C0CCF3881C07FB0CF4174FCB
:1006C0003F1F3F68C7F301477F1C7D00B4FBF5F770
:1006D000076002E0124F076000BF00BF0F4F3F6886
:1006E00007F0F0010909104F7A5C0768D7404760AE
:1006F0000A4F3F6807F4E051890A0B4F7A5C47685C
:10070000D7408760054F3F6807F46041490B064FAB
:100710007A5C4768D740C760F0BD000008380240E7
:100720000024F40000127A00070000207047000047
:100730000CB50020019000903448006840F48030EF
:100740003249086000BF3148006800F40030009072
:100750000198401C0190009818B90198B0F5A04F7D
:10076000F1D12A48006800F4003010B10120009057
:1007700001E0002000900098012846D12348403035
:10078000006840F0805021494031086020480068EE
:1007900040F440401E4908601C48083000681B496E
:1007A000083108600846006840F4004008600846C8
:1007B000006840F4A05008601648091F0860081F30
:1007C000006840F08070091F086000BF0F48006893
:1007D00000F000700028F9D040F205700E49086062
:1007E0000A480830006820F0030008490831086012
:1007F0000846006840F00200086000BF0348083067
:10080000006800F00C000828F8D10CBD0038024048
:100810000070004008544007003C0240042808D102
:100820004FF0E021096941F004014FF0E02211612D
:1008300007E04FF0E021096921F004014FF0E022C8
:100840001161704710B51548006840F470001349F5
:1008500008601348006840F001001149086000205A
:100860000F49083108600E4800680E4908400C49DD
:1008700008600D48091D0860081F006820F48020EA
:10088000091F0860002006490C310860FFF750FF7F
:100890004FF0006001498039086010BD88ED00E02C
:1008A00000380240FFFFF6FE1030002401F4007211
:1008B000B2F5007F00D100BFCA430280704721B16A
:1008C000828942F40052828104E082894DF6FF73EE
:1008D0001A408281704702460020B1F5007F00D1A6
:1008E00000BF13880B400BB1012000E000207047CF
:1008F0002DE9FF4705460E460024A14600BFA0464D
:10090000B08900B100BF2C8A24F44054F08804431D
:100910002C82AC8941F20C608443B0883189084351
:10092000718908430443AC81AC8A24F44074B089D3
:100930000443AC826846FFF785FE2048854202D01A
:100940001F48854202D1DDF80C9001E0DDF80890E7
:10095000A88900F4004040B109EBC90000EB091080
:1009600031684900B0FBF1F707E009EBC90000EB83
:10097000091031688900B0FBF1F76420B7FBF0F093
:1009800004012009642101FB1078A88900F40040CB
:1009900040B1322000EBC800B0FBF1F000F00700DE
:1009A000044308E0322000EB08106421B0FBF1F0B2
:1009B00000F00F0004432C81BDE8FF8700100140C8
:1009C00000140140C1F308028280704700BFFEE7B7
:1009D000014A024900F013B8210A0008180000205B
:1009E00002E008C8121F08C1002AFAD170477047F8
:1009F000002001E001C1121F002AFBD170472DE940
:100A0000F04116460F460446002503E03946B0473C
:100A1000641C6D1C20780028F8D12846BDE8F081C0
:100A200070B504460D46E1B20548FFF7CBFF00BFA5
:100A300040210348FFF74FFF0028F9D0204670BD42
:100A400000100140FFF7E4FBFFF72AFC4FF4E13010
:100A5000FFF7C8FC06A0FFF7BBFFFFF73FFC05E070
:100A60000C48FFF789FC1E20FFF7D8FBF8E70000D1
:100A70002A2A2A4F70656E43545220505332CEDEDC
:100A8000CFDFCAD6B1FAC0FDB3CC2A2A2A0D0A0D8F
:100A90000A000000000000200142000000000000E9
:100AA00000000000C40A0008000000201C00000034
:100AB000E0090008E00A00081C0000200C04000007
:100AC000F009000800000000000000000000000124
:100AD00002030401020304060708090000000000E5
:040000050800018965
:00000001FF
