:020000040800F2
:10000000380700205D020008491A0008411A00085C
:10001000451A0008F90700081D1D0008000000002F
:10002000000000000000000000000000511A00085D
:10003000FD070008000000004D1A0008551A0008CE
:1000400077020008770200087702000877020008AC
:10005000770200087702000877020008770200089C
:10006000770200087702000877020008770200088C
:10007000770200087702000877020008770200087C
:10008000770200087702000877020008770200086C
:10009000770200087702000877020008770200085C
:1000A000770200087702000877020008770200084C
:1000B000770200087702000877020008770200083C
:1000C000770200087702000877020008770200082C
:1000D00077020008111D0008770200087702000867
:1000E000770200087702000877020008770200080C
:1000F00077020008770200087702000877020008FC
:1001000077020008770200087702000877020008EB
:1001100077020008770200087702000877020008DB
:1001200077020008770200087702000877020008CB
:1001300077020008770200087702000877020008BB
:1001400077020008770200087702000877020008AB
:10015000770200087702000877020008770200089B
:10016000770200087702000877020008770200088B
:1001700077020008770200087702000800000000FC
:10018000770200087702000800F002F800F057F844
:1001900014A696E8000CB244B344DA4501D100F04D
:1001A0004EF8BAE80F000FA696E83000A5EB04055C
:1001B00004EB0607AAEB0704A7F101074FEA1515A0
:1001C0004FEA3414A4F10104AC4201D300F037F833
:1001D00013F0010F18BFFB1A43F0010300F001F800
:1001E000DBE71847501D0000701D0000103A24BFC7
:1001F00078C878C1FAD8520724BF30C830C144BF8C
:1002000004680C6070470000704700000023002461
:1002100000250026103A28BF78C1FBD8520728BF16
:1002200030C148BF0B607047782900F0EB80002098
:1002300070471FB501F026FE1FBD10B510BD00F0C0
:100240002CFA1146FFF7F5FF01F06AFD00F04AFABB
:1002500003B4FFF7F2FF03BC00F052FA09488047ED
:1002600009480047FEE7FEE7FEE7FEE7FEE7FEE798
:10027000FEE7FEE7FEE7FEE704480549054A064BB0
:1002800070470000011B00088901000838010020A8
:1002900038070020380300203803002053EA020CFE
:1002A00000F069802DE9F04B4FF00006002B1FBFD6
:1002B000B3FA83F503FA05F424FA05F65E4012BF9B
:1002C0001643B2FA82F502FA05F4C5F120051EBF05
:1002D00022FA05FC44EA0C04203556EA044C4FEAA5
:1002E000144418BF641C4FF000084FF000099042FE
:1002F00071EB030C39D3002919BFB1FA81F701FA68
:1003000007F6B0FA80F700FA07F6C7F120071EBF1C
:1003100020FA07FC46EA0C062037B6FBF4FCA7EBF4
:100320000507103F07F01F0BCBF120062CFA06F64D
:100330000CFA0BFB44BFB3460026202FA4BF5E4639
:100340004FF0000B5BEA060C08BF4FF0010B19EBF6
:100350000B0948EB0608ABFB027C06FB02CC0BFB4F
:1003600003CCC01B71EB0C01C1E70B4602464146B2
:100370004846BDE8F08B13B5084318BF4FF0FF3077
:100380000146AFF30080BDE81C4070470FB41CB5B8
:10039000074B06AA7B4469460090059800F065F972
:1003A0000020694600F074F91CBC5DF814FB0000E5
:1003B000F902000070B5044685690068C10601D5E0
:1003C000302600E02026C00707D070BDD4E9012107
:1003D00030469047206A401C20626D1EF6D570BDE5
:1003E00070B5044685690078C00707D170BDD4E9AF
:1003F000012120209047206A401C20626D1EF6D506
:1004000070BD000070B504460D4621461068AFF37C
:1004100000802188090502D50F4A7A4402E00E4A7D
:100420007A440E32002104F1240305E000F00F06A7
:100430000009965D5E54491C0028F7D120780023FE
:10044000000704D5702D02D009B1022311322046D5
:10045000BDE8704000F0ABB8801A00002DE9F0470D
:100460004FF0000A89460446C0F820A02046E16803
:100470008847002876D0252806D0D4E90121904766
:10048000206A401C2062F1E7E16820460025884789
:10049000C4F81CA006460027C4F818A02A2E09D0CC
:1004A000304601F0E8FC38B304EB8708303EC8F86A
:1004B000186019E059F8041B204604EB870291618B
:1004C000E1688847012F064618D1E069002820DA44
:1004D00025F020051DE0D8F8180000EB800006EBA1
:1004E00040003038C8F818002046E16888470646C2
:1004F00001F0C1FC0028EED1012F0AD02E2E08D128
:100500002046E16888477F1C0646022F45F02005FB
:10051000C4DBA069002803DA404245F00105A06170
:10052000E80701D025F01005B6B1A6F14100192861
:1005300002D8203645F400654A46314620462560FB
:100540004D46FFF771FE58B1012806D0ED1D25F08C
:10055000070000F1080989E704E005F1040985E7CF
:1005600030468AE7206ABDE8F08710B5431C02E0F8
:1005700010F8011B71B18107FAD14FF0013202C8A6
:100580008C1A8C4314EAC211F9D0C01A0A0603D09F
:10059000C01E10BDC01A10BD0A0401D0801E10BDBF
:1005A0000902FCD0401E10BD7047704770472DE90E
:1005B000F0470D4699469246044600F1240801682A
:1005C000880604D5E06921F01001216000E00120D7
:1005D000A84201DD471B00E00027A1697A1902EB60
:1005E0000900081AA0612078C00602D42046FFF74F
:1005F000E1FE002608E0D4E901211AF80600904740
:10060000206A401C761C20624E45F4DB2078C00630
:100610000AD52046FFF7CEFE06E0D4E901213020BE
:100620009047206A401C2062381EA7F10107F4DCC5
:1006300007E0D4E9012118F805009047206A401C22
:100640002062281EA5F10105F3DC2046FFF7C8FE55
:100650002078000602D50220BDE8F0870120FBE7E4
:1006600001694A1C02610878704700B58FB0CDE976
:1006700001310021059105497944CDE90310114666
:100680006846FFF7EBFE0FB000BD0000E5FFFFFF7F
:100690000A6802F8010B0A607047754600F02CF8F2
:1006A000AE4605006946534620F00700854618B05F
:1006B00020B5FFF7E1FDBDE820404FF000064FF008
:1006C00000074FF000084FF0000BAC46ACE8C00943
:1006D000ACE8C009ACE8C009ACE8C00921F00701EA
:1006E0008D46704710B50446AFF300802046BDE844
:1006F0001040FFF7ADBD000000487047100000201B
:1007000001491820ABBEFEE726000200704700003A
:100710002DE9F0470025C4F2020580462846402115
:100720000022002700F0E0F941F6DE6940F2C00641
:10073000C0F60009C2F200064FF0010A0EE000BF49
:1007400028462021012200F0CFF97078F119887035
:10075000102000F0C3F80137092F2FD019F80740F7
:10076000A6F800A008E000BF102000F0B7F830782D
:10077000400001063070E3D028468021002200F0BE
:10078000B3F93078202110EA0402284618BF01226C
:1007900000F0AAF9102000F0A1F8284680210122DB
:1007A00000F0A2F92846102100F098F90028DBD0CB
:1007B0003078717808437070D6E700BF2846402132
:1007C000012200F091F9F07888F800007079C043B8
:1007D00088F80100B079C04388F80200F07988F801
:1007E0000300307A88F80400707A88F80500B07A3F
:1007F00088F80600BDE8F087FEE7000070470000BB
:1008000070B5866D044600F075F994F8351002292C
:1008100028D105462068216C026822F01602026089
:10082000426922F08002426109B9A16C19B10168E4
:1008300021F008010160016821F00101016000BFA1
:1008400020680068C00715D000F054F9401B062846
:10085000F6D320206065032084F83500002184F859
:10086000341070BD802060650120002184F83410B0
:1008700070BD00BFE06D3F2101FA00F0B0600120C3
:1008800084F835000020002184F8341070BD000089
:1008900090F83510022909D1052180F8351000683B
:1008A000016821F00101016000207047802141654D
:1008B00001207047B0B5044600F01CF9054640F22F
:1008C0000000C2F200000078611C18BF044400BFA1
:1008D00000F010F9401BA042FAD3B0BD80B54EF233
:1008E000180140F2CC02CEF20001C2F2000251F82F
:1008F00004CC1268002302FB00FE08680AE000BF77
:1009000003449B1A824228BF63447345104628BFA4
:1009100080BD00BF0A688242F2D10A688242EFD1EC
:100920000A688242ECD10A688242F3D0E8E700000C
:1009300040F2CC01C2F20001086070472DE9F04F8F
:1009400082B000F13E4707F1FF77860546EA972718
:1009500041F60046C4F20206082243F6004EB042B9
:1009600008BF0722C4F2010E072F38BF3A460026FF
:1009700000274FF00008009209E000BF08F10108CD
:100980000237B8F1100F06F1040600F0A3800D68DD
:10099000012202FA08F415EA0409EFD0D1F804B0F4
:1009A00003220BF0030CACF10105BA40012D6FEAF4
:1009B000020A0FD88268CD6802EA0A02BD402A43C3
:1009C00082604268A243CBF3001404FA08F4224385
:1009D000426005E0BCF1030F02D14FF0030C1EE0B2
:1009E000C2688C6802EA0A02BC402243BCF1020FD2
:1009F000C26014D16FF0030202EA58020244D2F836
:100A000020C006F01C040F230D69A3402CEA030349
:100A1000A5402B431362D1F804B00BF0030C02681D
:100A20000CFA07F302EA0A021A431BF4403F026081
:100A3000A4D0002243F644030192C4F202031A68D0
:100A40004FF6084C42F480421A601A68CFF6FF7CD9
:100A500002F480420192019A28F00302724452F893
:100A60000C3006F00C050F24AC40A343009C04FAA4
:100A700005F52B4342F80C30DEF808204B6842EABB
:100A8000090543F60C4CDC0258BF22EA0905CEF8F2
:100A90000850C4F2010CDCF800209C0242EA09056F
:100AA00058BF22EA0905CCF80050DEF804209C0368
:100AB00042EA090558BF22EA0905CEF80450DEF8DB
:100AC0000020DB0342EA090558BF22EA0905CEF8F7
:100AD000005053E702B0BDE8F08F00000069084005
:100AE00018BF012070470000002A08BF0904816177
:100AF0007047000040F23410C2F2000000687047F6
:100B000040F2000040F23411C2F20000C2F20001D3
:100B100000780A68104408607047000080B543F60A
:100B20000040C4F20200016841F4007101600168F4
:100B300041F480610160016841F48071016003202B
:100B400000F086F80F2000F005F800F027F80020EC
:100B500080BD000070B540F20006C2F2000640F20F
:100B600008013278C2F200014FF47A730968B3FBCE
:100B7000F2F20446B1FBF2F1084600F061FB0F2CE3
:100B80004FF0010508D838B94FF0FF302146002258
:100B9000002500F031F87460284670BD82B0002056
:100BA00043F640010190C4F202014A6842F48042D7
:100BB0004A604A6802F480420192019A00900868F3
:100BC00040F080500860086800F080500090009865
:100BD00002B07047002848BF704700F01F01012293
:100BE00002FA01F11C2202EAD0004EF20012CEF20B
:100BF000000281507047000010B54EF60C5CCEF23A
:100C0000000CDCF80030C3F3022E8EF00704042C35
:100C100028BF0424BEF103034FF0FF3E0EFA04F494
:100C200038BF0023A14399400EFA03F39A431143BE
:100C300000F00F0200F160430901043A03F5644338
:100C40006244002848BF02F10C03197010BD000077
:100C50004EF60C51CEF200010A684FF6FF031A401F
:100C600060F30A2242F0806040F0FD700860704737
:100C7000002804BF012070472DE9F04143F6080821
:100C8000C4F202080446D8F8F8030D4600F0070045
:100C9000884207D288F8F853D8F8F80300F0070024
:100CA000A84277D12068810717D5410705D5D8F824
:100CB000001041F4E051C8F80010010705D5D8F83C
:100CC000001041F46041C8F80010D8F80010A26884
:100CD00021F0F0011143C8F80010C00740D1D8F846
:100CE000F80300F00700A84207D988F8F853D8F8AD
:100CF000F80300F00700A8424CD12068410707D54F
:100D0000D8F80010E26821F4E0511143C8F800104F
:100D1000000708D5D8F80000216920F4604040EAB7
:100D2000C100C8F8000000F07DF8D8F8001041F6C6
:100D3000C662C1F30311C0F60002515C40F2080222
:100D400020FA01F140F20400C2F200000068C2F291
:100D500000021160FFF7FEFE0020BDE8F08100BF39
:100D60006068811E022907D258F8081C89015CBFFF
:100D70000120BDE8F08111E0012807D158F8081CD6
:100D800089035CBF0120BDE8F08107E058F8081C2A
:100D9000890703D40120BDE8F08100BFD8F8001016
:100DA00021F003010843C8F80000FFF7A3FE064640
:100DB00041F28837D8F80000616800F00C00B0EB11
:100DC000810F8CD0FFF796FE801BB842F2D903202A
:100DD000BDE8F08140F2080043F60801C2F20000CD
:100DE000C4F202010068096841F6D662C1F38221AB
:100DF000C0F60002515CC8407047000040F2080095
:100E000043F60801C2F20000C4F20201006809685A
:100E100041F6D662C1F34231C0F60002515CC840CF
:100E20007047000010B543F60404C4F20204606881
:100E300000F00C0142F200400829C0F2F40007D093
:100E4000042918BF10BD41F20020C0F27A0010BD85
:100E5000216801F03F02216823684902C3F3881129
:100E600006D4A1FB00010023FFF718FA07E000BF3A
:100E700041F20020C0F27A004843B0FBF2F0216852
:100E80000222C1F3014102EB4101B0FBF1F010BDC0
:100E9000002804BF012070472DE9F04182B00446CC
:100EA000007843F60006C007C4F202060CD0B06812
:100EB00000F00C00042840F081803068800303D5E6
:100EC0006068002800F06A81207880071BD5B06830
:100ED00010F00C0F09D0B06800F00C00082840F0AA
:100EE00087807068400200F183803068800703D5F6
:100EF000E068012840F052813068216920F0F80054
:100F000040EAC10030602078000713D42078400701
:100F10002AD4A569002D00F03C81B06800F00C00D7
:100F2000082840F0A180012D40F01081012002B07E
:100F3000BDE8F0816069002840F20000C4F247205B
:100F400000F07E800121C0F8801EFFF7D3FD05462A
:100F5000706F8007DAD4FFF7CDFD401B0228F7D968
:100F6000032002B0BDE8F081306C5FEAC0080AD40B
:100F700000200190306C40F080503064306C00F004
:100F800080500190019847F20007C4F200073868CA
:100F9000C00547D4386840F480703860FFF7AAFD78
:100FA000054600BF3868C0053CD4FFF7A3FD401BD1
:100FB0000228F7D9032002B0BDE8F081B06800F044
:100FC0000C00082803D1706840023FF576AF6068D6
:100FD000B0F5803F07D0B0F5A02F40F09B8030687F
:100FE00040F480203060306840F4803030609BE016
:100FF000E06800285CD00020C4F247200121016095
:10100000FFF778FD054600BF306880073FF574AFF5
:10101000FFF770FD401B0228F6D9032002B0BDE89F
:10102000F08100BFA068012805D0052854D1306F99
:1010300040F004003067306F40F00100306755E049
:101040000021C0F8801EFFF755FD0546706F800730
:101050007FF55CAFFFF74EFD401B0228F6D9032059
:1010600002B0BDE8F08100BF0027C4F2472700208E
:101070003866FFF73FFD022D05460DD1306880012F
:1010800040F19080FFF736FD401B02284FF003002F
:10109000F4D902B0BDE8F0813068800179D5FFF75E
:1010A00029FD401B02284FF00300F5D9F1E700BFEE
:1010B0000020C4F2472000210160FFF71BFD054618
:1010C000306880077FF51FAFFFF714FD401B022833
:1010D0004FF00300F4D9DCE7316F002821F0010163
:1010E0003167316F21F0040131677DD0FFF702FDD8
:1010F000054641F2883700BF306F800700F18680D7
:10110000FFF7F8FC401BB842F6D9032002B0BDE857
:10111000F08100BF3168002821F4803131603168EE
:1011200021F4802131607BD0FFF7E4FC054600BF4D
:10113000306880033FF5C8AEFFF7DCFC401B642835
:10114000F6D9032002B0BDE8F08100BF7068E16904
:1011500000F480028A4221D1216A00F03F028A42D3
:101160001CD147F6C071626A0140B1EB821F15D1F4
:10117000A16A4FF6FF73C903994300F44032A1F509
:1011800080318A420AD1E16A00F07060B0EB016FF1
:1011900004D1002002B0BDE8F08100BF012002B000
:1011A000BDE8F08104F11C052FCD084340EA821010
:1011B000D9034FF6FF729143A1F5803140EA0560F3
:1011C0000843706001203866FFF794FC044600BFB6
:1011D00030688001DDD4FFF78DFC001B02284FF042
:1011E0000300F5D955E700BFFFF784FC054641F23F
:1011F000883700BF306F800708D5FFF77BFC401BA6
:10120000B8424FF00300F5D943E700BFB8F1000F33
:101210003FF57FAE306C20F08050306479E600BF3F
:10122000FFF768FC054600BF306880037FF54CAED1
:10123000FFF760FC401B64284FF00300F4D928E757
:10124000411E0020B0EB116F1CBF012070474EF211
:101250001002CEF2000251604EF62351CEF2000190
:10126000F0230B70072190601160704770470000F9
:1012700070470000B0B582B0044600680168C368DA
:10128000426901F02F05202D03F0200506D12DB174
:10129000204602B0BDE8B04000F042BC5FEA017CED
:1012A0001EBF02F0010E03F4907212EB0E0243D146
:1012B000226BCD0618D5012A16D113F0100213D0D7
:1012C00000210191016801914168019101994069F2
:1012D00040063BD4A08DE18DE28D002A18BF8842E4
:1012E00040F0F28102B0B0BD0A0640F1E78013F091
:1012F000800200F0E38094F841102129F2D1A16826
:10130000B1F5805F03D12169002900F06382216A71
:101310004A1C226209784160E18C01390A04E184A7
:10132000E0D1C16821F08001C160C16841F0400195
:10133000C16002B0B0BD00BFCA0718BF13F480720D
:1013400040F0D0804A0700F1D380D8E0E06B01681C
:1013500049688AB2002AC5D0A38D9A42C2D2E185DB
:10136000C069B0F5807F00F09D80206850E8030FD1
:10137000216820F4807041E80302DAB1206850E867
:10138000030F216820F4807041E8030292B12068C5
:1013900050E8030F216820F4807041E803024AB14D
:1013A000206850E8030F216820F4807041E80302B0
:1013B000002ADAD1206850E8050F216820F00100EA
:1013C00041E80502BAB3206850E8050F216820F013
:1013D000010041E8050272B3206850E8050F21685A
:1013E00020F0010041E805022AB3206850E8050F0B
:1013F000216820F0010041E80502002ADAD11AE054
:10140000206850E8050F216820F0400041E80502FF
:10141000DAB1206850E8050F216820F0400041E86B
:10142000050292B1206850E8050F216820F04000C5
:1014300041E805024AB1206850E8050F216820F014
:10144000400041E80502002ADAD1202084F8420059
:1014500000202063206850E8030F216820F010006E
:1014600041E80302DAB1206850E8030F216820F058
:10147000100041E8030292B1206850E8030F216890
:1014800020F0100041E803024AB1206850E8030F41
:10149000216820F0100041E80302002ADAD1E06B55
:1014A000FFF7AEF902206063A08DE18D401A81B292
:1014B000204602B0BDE8B040FFF7D8BE49067FF530
:1014C00011AF13F040013FF40DAFC16821F04001AE
:1014D000C1602021204684F8411002B0BDE8B04030
:1014E00000F0ACBA626C42F0010262644A0706D5B1
:1014F000BEF1000F03D0626C42F0020262648A0700
:1015000006D5BEF1000F03D0626C42F004026264A3
:10151000BCF1000F06D55EEA050203D0626C42F012
:1015200008026264626C002A3FF4DCAE890604D5CE
:101530001DB1204600F0F4FA20684069616C00F0AB
:10154000400001F00801401800F0B680206850E823
:10155000030F216820F4907041E80302BAB32068B9
:1015600050E8030F216820F4907041E8030272B341
:10157000206850E8030F216820F4907041E80302CE
:101580002AB3206850E8030F216820F4907041E8E6
:101590000302002ADAD11AE0206850E8050F21681A
:1015A00020F0010041E80502DAB1206850E8050F9B
:1015B000216820F0010041E8050292B1206850E85E
:1015C000050F216820F0010041E805024AB12068BA
:1015D00050E8050F216820F0010041E80502002ACB
:1015E000DAD1206B012824D1206850E8030F21684C
:1015F00020F0100041E80302DAB1206850E8030F40
:10160000216820F0100041E8030292B1206850E800
:10161000030F216820F0100041E803024AB120685E
:1016200050E8030F216820F0100041E80302002A6F
:10163000DAD1202084F8420000202063206840692D
:10164000400640F1C180206850E8050F216820F075
:10165000400041E80502DAB1206850E8050F216832
:1016600020F0400041E8050292B1206850E8050FE3
:10167000216820F0400041E805024AB1206850E8A6
:10168000050F216820F0400041E80502002ADAD168
:10169000E06B002800F0988041F61531C0F600019B
:1016A0000165FFF7F5F800283FF41CAEE06B016D13
:1016B00002B0BDE8B04008472046FFF7D9FD002042
:1016C000606402B0B0BD00BF401A00BF216851E89D
:1016D000031F226821F4907142E80313BBB3216811
:1016E00051E8031F226821F4907142E8031373B399
:1016F000216851E8031F226821F4907142E8031326
:101700002BB3216851E8031F226821F4907142E84D
:101710000313002BDAD11AE0216851E8051F226873
:1017200021F0010142E80513DBB1216851E8051FF2
:10173000226821F0010142E8051393B1216851E8C4
:10174000051F226821F0010142E805134BB1216811
:1017500051E8051F226821F0010142E80513002B22
:10176000DAD1202184F8421000212163216851E858
:10177000031F226821F0100142E80313DBB1216846
:1017800051E8031F226821F0100142E8031393B1CE
:10179000216851E8031F226821F0100142E8031379
:1017A0004BB1216851E8031F226821F0100142E883
:1017B0000313002BDAD1022281B22046626302B009
:1017C000BDE8B040FFF752BD204602B0BDE8B040D2
:1017D000FFF74EBD216A31F8022B6FF35F224260A2
:1017E000216299E5002804BF0120704710B5044626
:1017F00090F8410028B9002084F84000204600F00D
:1018000021F8242084F841002068C16821F40051A7
:10181000C160204600F004FA2068016921F490417B
:101820000161416921F02A014161C16841F400511F
:10183000C16000202021606484F8411084F84210C7
:10184000606310BD016841F20000C4F201008142F2
:1018500018BF704780B586B0002143F63002019171
:10186000C4F20202536900F5704043F01003536163
:10187000536903F010030193019B0191136843F036
:1018800001031360126802F001020192019A4FF401
:10189000C06201920222CDE90221032104910721B5
:1018A000059101A9FFF74AF8252000210022FFF742
:1018B000A3F92520FFF78EF906B0BDE880407047F8
:1018C000704700002DE9F041044690F841002028BF
:1018D0001CBF0220BDE8F0810D4600294FF0010039
:1018E00000F0AA801646002A08BFBDE8F08100205B
:1018F00060642120984684F84100FFF7FBF8A68435
:10190000E684A1680646B1F5805F02D1206900280F
:1019100062D02F460025E08C002861D018F101002C
:1019200018D0B8F1000F37D1216808E017F8010B83
:101930004860E08C0138E084E08C002851D00868D1
:10194000000673D5002FF1D135F8020B00276FF395
:101950005F20EDE7216802E00868000609D4086806
:10196000000606D4086800065CBF08685FEA0060ED
:10197000F2D51FB117F8010B05E000BF35F8020BD7
:1019800000276FF35F204860E08C0138E084E08C32
:101990000028E4D125E000BF216800BF08680006E8
:1019A00008D4FFF7A7F8801B404541D82168C868D4
:1019B000F4E700BF17B117F8010B04E035F8020B8C
:1019C00000276FF35F204860E08C0138E084E08CF2
:1019D0000028E3D105E000BF0027E08C00289DD15E
:1019E0002168086840061FD4B8F1000F1ED018F116
:1019F00001000FD10868400616D40868400613D4C9
:101A00000868400610D4086840064FF00000F1D581
:101A10000FE000BFFFF76EF8801B404508D8206834
:101A2000C16800684006F5D5002002E0FFF762F8C3
:101A30000320202184F84110BDE8F08170470000A8
:101A4000FEE70000FEE70000FEE700007047000030
:101A500070470000FFF754B8B0B592B0002443F6C9
:101A60004000CDE90A44CDE908440594CDE903449A
:101A7000CDE901440094C4F202000168022541F05E
:101A800080510160006800F080500090009847F29B
:101A900000000094C4F20000016841F4804101603C
:101AA0000068A82100F48040009000980120069072
:101AB0004FF4803007904FF480000D9004200E907A
:101AC000119006A80C95CDE90F15FFF7E1F918B1B3
:101AD00072B600BFFEE700BF0F20CDE901054FF44D
:101AE000A05004904FF48050059001A80521039464
:101AF000FFF7BEF810B172B6FEE700BF12B0B0BD7E
:101B00004EF68850CEF20000016841F47001016089
:101B100070470000806B0021C185C184FFF7A8BB1E
:101B200081B090F84210222921D183680246B3F592
:101B3000805F09D152F8281F52F8183C002B63D05F
:101B400003685B680AE000BF52F8281F13B90369F5
:101B5000002BF5D003685B6803F07F030B701168FE
:101B600001311160C18D01390A04C18502D001B073
:101B7000704700BF0168CA6822F02002CA60CA68C4
:101B800022F48072CA604A6922F001024A6120216F
:101B900080F8421000214163026B012A3CD10163AD
:101BA000016851E8031F026821F0100142E80313A5
:101BB000DBB1016851E8031F026821F0100142E81F
:101BC000031393B1016851E8031F026821F010016B
:101BD00042E803134BB1016851E8031F026821F08A
:101BE000100142E80313002BDAD101680A68D2061B
:101BF00006D5002200920A68009249680091009977
:101C0000818D01B0FFF732BB026852686FF35F222B
:101C100021F8022B8162A5E701B0FFF751BE000059
:101C200010B504460068D4E902C22369016921F4B1
:101C3000405111430161626943EA0C01E3691143B8
:101C4000C268194349F20C639A431143C160416968
:101C5000A26921F4407141F20043114340F48062D3
:101C6000C4F201039A42416102D1FFF7C7F801E0D3
:101C7000FFF7B0F8E16963681922B1F5004FA0FBE6
:101C8000020123D15A00DB0FFEF708FB48F21F5177
:101C9000C5F2EB11A0FB01235A094FF69C73C0F665
:101CA000FF7303F1805302FB0300322303EBC000F8
:101CB000A0FB01014FF4F87000EA111000EB0210D4
:101CC000C1F3421108442168886010BD9A009B0F3F
:101CD000FEF7E4FA48F21F51C5F2EB11A0FB012315
:101CE0005A094FF69C73C0F6FF7302FB03003223C0
:101CF00003EB0010A0FB0101F02000EA511000EB03
:101D00000210C1F3431108442168886010BD00002F
:101D100040F27800C2F20000FFF7ACBAFEE7000024
:101D20008CB0FEF7FBFEFFF797FE002743F630006E
:101D30000B970697C4F20200016840F2000841F0D8
:101D4000040101600168C4F2020801F00401069177
:101D500006990697016808F5006541F08001016069
:101D60000168002201F0800106910699069701683A
:101D700041F00101016000684FF4015100F00100E1
:101D8000069006982846FEF7AFFE4046E021002266
:101D90004FF0E009FEF7A8FE4FF4005007AE0790A1
:101DA000012428463146CDE908440A97FEF7C6FDCE
:101DB0001020CDE907070220099040463146FEF782
:101DC000BDFDCDE907944FF0030940463146099423
:101DD000CDF82890FEF7B2FD402007A981E89102D6
:101DE00028463146FEF7AAFD40F27004C2F2000414
:101DF000A8F57041204640F8081F4FF4E1310C224D
:101E0000C0E90117C0E90377C0E90527C761FFF7FB
:101E1000E9FC18B172B600BFFEE700BFA820FEF7CC
:101E200087FD40F2D00A41F6E768C2F2000AC0F628
:101E3000000804F1080900BF2046FEF769FCA078FD
:101E400022786378E178A579267967798DE8C300EF
:101E5000504641460495FEF799FA5046FEF785FB39
:101E600082B2484651464FF6FF73FFF72BFD1E2006
:101E7000FEF720FDE0E730380A2801D20120704744
:101E800000207047F1EE100A4FF6FF71C0F2C0312A
:101E900020EA010040F04070E1EE100A7047303156
:101EA0003233343536373839414243444546403081
:101EB0005800303132333435363738396162636433
:101EC000656640307800000000000000000001025C
:101ED0000304060708090000000001020304014290
:101EE000000000000000004D4F44453A25327820A4
:101EF00042544E313A2532782042544E323A2532FD
:101F00007820524A4F595F4C523A25327820524A33
:101F10004F595F55443A253278204C4A4F595F4C0F
:101F2000523A253278204C4A4F595F55443A25326F
:101F3000780D0A00581F0008000000201000000063
:101F4000EC010008681F00081000002028070000AE
:101F50000C0200080000000001000000100000005A
:081F60000024F4000000000061
:040000050800018965
:00000001FF
